{
  "_format": "hh-sol-artifact-1",
  "contractName": "Upload",
  "sourceName": "contracts/Upload.sol",
  "abi": [
    {
      "inputs": [
        {
          "internalType": "address",
          "name": "_user",
          "type": "address"
        },
        {
          "internalType": "string",
          "name": "url",
          "type": "string"
        }
      ],
      "name": "add",
      "outputs": [],
      "stateMutability": "payable",
      "type": "function"
    },
    {
      "inputs": [
        {
          "internalType": "address",
          "name": "user",
          "type": "address"
        }
      ],
      "name": "allow",
      "outputs": [],
      "stateMutability": "nonpayable",
      "type": "function"
    },
    {
      "inputs": [
        {
          "internalType": "address",
          "name": "user",
          "type": "address"
        }
      ],
      "name": "disallow",
      "outputs": [],
      "stateMutability": "nonpayable",
      "type": "function"
    },
    {
      "inputs": [
        {
          "internalType": "address",
          "name": "_user",
          "type": "address"
        }
      ],
      "name": "display",
      "outputs": [
        {
          "internalType": "string[]",
          "name": "",
          "type": "string[]"
        }
      ],
      "stateMutability": "view",
      "type": "function"
    },
    {
      "inputs": [
        {
          "internalType": "address",
          "name": "sender",
          "type": "address"
        }
      ],
      "name": "getMessage",
      "outputs": [
        {
          "internalType": "string",
          "name": "",
          "type": "string"
        }
      ],
      "stateMutability": "view",
      "type": "function"
    },
    {
      "inputs": [
        {
          "internalType": "address",
          "name": "",
          "type": "address"
        }
      ],
      "name": "messages",
      "outputs": [
        {
          "internalType": "string",
          "name": "",
          "type": "string"
        }
      ],
      "stateMutability": "view",
      "type": "function"
    },
    {
      "inputs": [
        {
          "internalType": "address",
          "name": "_receiver",
          "type": "address"
        },
        {
          "internalType": "string",
          "name": "message",
          "type": "string"
        }
      ],
      "name": "sendMessage",
      "outputs": [],
      "stateMutability": "payable",
      "type": "function"
    },
    {
      "inputs": [],
      "name": "shareAccess",
      "outputs": [
        {
          "components": [
            {
              "internalType": "address",
              "name": "user",
              "type": "address"
            },
            {
              "internalType": "bool",
              "name": "access",
              "type": "bool"
            }
          ],
          "internalType": "struct Upload.Access[]",
          "name": "",
          "type": "tuple[]"
        }
      ],
      "stateMutability": "view",
      "type": "function"
    }
  ],
  "bytecode": "0x608060405234801561001057600080fd5b50611554806100206000396000f3fe60806040526004361061007b5760003560e01c8063bc8bef811161004e578063bc8bef811461013f578063de6f24bb1461016a578063eb39113f14610186578063ff9913e8146101c35761007b565b806336d6da551461008057806355448fe11461009c5780635fdd59f8146100d9578063a9ed9cb814610116575b600080fd5b61009a60048036038101906100959190611015565b6101ec565b005b3480156100a857600080fd5b506100c360048036038101906100be9190611071565b610268565b6040516100d09190611126565b60405180910390f35b3480156100e557600080fd5b5061010060048036038101906100fb9190611071565b610339565b60405161010d9190611126565b60405180910390f35b34801561012257600080fd5b5061013d60048036038101906101389190611071565b6103d9565b005b34801561014b57600080fd5b506101546105fc565b6040516101619190611250565b60405180910390f35b610184600480360381019061017f9190611015565b610705565b005b34801561019257600080fd5b506101ad60048036038101906101a89190611071565b61075d565b6040516101ba919061137e565b60405180910390f35b3480156101cf57600080fd5b506101ea60048036038101906101e59190611071565b610973565b005b6000808373ffffffffffffffffffffffffffffffffffffffff1673ffffffffffffffffffffffffffffffffffffffff16815260200190815260200160002081908060018154018082558091505060019003906000526020600020016000909190919091509080519060200190610263929190610dba565b505050565b6060600460008373ffffffffffffffffffffffffffffffffffffffff1673ffffffffffffffffffffffffffffffffffffffff16815260200190815260200160002080546102b4906113cf565b80601f01602080910402602001604051908101604052809291908181526020018280546102e0906113cf565b801561032d5780601f106103025761010080835404028352916020019161032d565b820191906000526020600020905b81548152906001019060200180831161031057829003601f168201915b50505050509050919050565b60046020528060005260406000206000915090508054610358906113cf565b80601f0160208091040260200160405190810160405280929190818152602001828054610384906113cf565b80156103d15780601f106103a6576101008083540402835291602001916103d1565b820191906000526020600020905b8154815290600101906020018083116103b457829003601f168201915b505050505081565b6000600160003373ffffffffffffffffffffffffffffffffffffffff1673ffffffffffffffffffffffffffffffffffffffff16815260200190815260200160002060008373ffffffffffffffffffffffffffffffffffffffff1673ffffffffffffffffffffffffffffffffffffffff16815260200190815260200160002060006101000a81548160ff02191690831515021790555060005b600260003373ffffffffffffffffffffffffffffffffffffffff1673ffffffffffffffffffffffffffffffffffffffff168152602001908152602001600020805490508110156105f8578173ffffffffffffffffffffffffffffffffffffffff16600260003373ffffffffffffffffffffffffffffffffffffffff1673ffffffffffffffffffffffffffffffffffffffff168152602001908152602001600020828154811061052357610522611401565b5b9060005260206000200160000160009054906101000a900473ffffffffffffffffffffffffffffffffffffffff1673ffffffffffffffffffffffffffffffffffffffff1614156105e5576000600260003373ffffffffffffffffffffffffffffffffffffffff1673ffffffffffffffffffffffffffffffffffffffff16815260200190815260200160002082815481106105c0576105bf611401565b5b9060005260206000200160000160146101000a81548160ff0219169083151502179055505b80806105f090611469565b915050610471565b5050565b6060600260003373ffffffffffffffffffffffffffffffffffffffff1673ffffffffffffffffffffffffffffffffffffffff168152602001908152602001600020805480602002602001604051908101604052809291908181526020016000905b828210156106fc578382906000526020600020016040518060400160405290816000820160009054906101000a900473ffffffffffffffffffffffffffffffffffffffff1673ffffffffffffffffffffffffffffffffffffffff1673ffffffffffffffffffffffffffffffffffffffff1681526020016000820160149054906101000a900460ff1615151515815250508152602001906001019061065d565b50505050905090565b80600460008473ffffffffffffffffffffffffffffffffffffffff1673ffffffffffffffffffffffffffffffffffffffff1681526020019081526020016000209080519060200190610758929190610dba565b505050565b60603373ffffffffffffffffffffffffffffffffffffffff168273ffffffffffffffffffffffffffffffffffffffff16148061081f5750600160008373ffffffffffffffffffffffffffffffffffffffff1673ffffffffffffffffffffffffffffffffffffffff16815260200190815260200160002060003373ffffffffffffffffffffffffffffffffffffffff1673ffffffffffffffffffffffffffffffffffffffff16815260200190815260200160002060009054906101000a900460ff165b61085e576040517f08c379a0000000000000000000000000000000000000000000000000000000008152600401610855906114fe565b60405180910390fd5b6000808373ffffffffffffffffffffffffffffffffffffffff1673ffffffffffffffffffffffffffffffffffffffff168152602001908152602001600020805480602002602001604051908101604052809291908181526020016000905b828210156109685783829060005260206000200180546108db906113cf565b80601f0160208091040260200160405190810160405280929190818152602001828054610907906113cf565b80156109545780601f1061092957610100808354040283529160200191610954565b820191906000526020600020905b81548152906001019060200180831161093757829003601f168201915b5050505050815260200190600101906108bc565b505050509050919050565b60018060003373ffffffffffffffffffffffffffffffffffffffff1673ffffffffffffffffffffffffffffffffffffffff16815260200190815260200160002060008373ffffffffffffffffffffffffffffffffffffffff1673ffffffffffffffffffffffffffffffffffffffff16815260200190815260200160002060006101000a81548160ff021916908315150217905550600360003373ffffffffffffffffffffffffffffffffffffffff1673ffffffffffffffffffffffffffffffffffffffff16815260200190815260200160002060008273ffffffffffffffffffffffffffffffffffffffff1673ffffffffffffffffffffffffffffffffffffffff16815260200190815260200160002060009054906101000a900460ff1615610c265760005b600260003373ffffffffffffffffffffffffffffffffffffffff1673ffffffffffffffffffffffffffffffffffffffff16815260200190815260200160002080549050811015610c20578173ffffffffffffffffffffffffffffffffffffffff16600260003373ffffffffffffffffffffffffffffffffffffffff1673ffffffffffffffffffffffffffffffffffffffff1681526020019081526020016000208281548110610b4b57610b4a611401565b5b9060005260206000200160000160009054906101000a900473ffffffffffffffffffffffffffffffffffffffff1673ffffffffffffffffffffffffffffffffffffffff161415610c0d576001600260003373ffffffffffffffffffffffffffffffffffffffff1673ffffffffffffffffffffffffffffffffffffffff1681526020019081526020016000208281548110610be857610be7611401565b5b9060005260206000200160000160146101000a81548160ff0219169083151502179055505b8080610c1890611469565b915050610a99565b50610db7565b600260003373ffffffffffffffffffffffffffffffffffffffff1673ffffffffffffffffffffffffffffffffffffffff16815260200190815260200160002060405180604001604052808373ffffffffffffffffffffffffffffffffffffffff168152602001600115158152509080600181540180825580915050600190039060005260206000200160009091909190915060008201518160000160006101000a81548173ffffffffffffffffffffffffffffffffffffffff021916908373ffffffffffffffffffffffffffffffffffffffff16021790555060208201518160000160146101000a81548160ff02191690831515021790555050506001600360003373ffffffffffffffffffffffffffffffffffffffff1673ffffffffffffffffffffffffffffffffffffffff16815260200190815260200160002060008373ffffffffffffffffffffffffffffffffffffffff1673ffffffffffffffffffffffffffffffffffffffff16815260200190815260200160002060006101000a81548160ff0219169083151502179055505b50565b828054610dc6906113cf565b90600052602060002090601f016020900481019282610de85760008555610e2f565b82601f10610e0157805160ff1916838001178555610e2f565b82800160010185558215610e2f579182015b82811115610e2e578251825591602001919060010190610e13565b5b509050610e3c9190610e40565b5090565b5b80821115610e59576000816000905550600101610e41565b5090565b6000604051905090565b600080fd5b600080fd5b600073ffffffffffffffffffffffffffffffffffffffff82169050919050565b6000610e9c82610e71565b9050919050565b610eac81610e91565b8114610eb757600080fd5b50565b600081359050610ec981610ea3565b92915050565b600080fd5b600080fd5b6000601f19601f8301169050919050565b7f4e487b7100000000000000000000000000000000000000000000000000000000600052604160045260246000fd5b610f2282610ed9565b810181811067ffffffffffffffff82111715610f4157610f40610eea565b5b80604052505050565b6000610f54610e5d565b9050610f608282610f19565b919050565b600067ffffffffffffffff821115610f8057610f7f610eea565b5b610f8982610ed9565b9050602081019050919050565b82818337600083830152505050565b6000610fb8610fb384610f65565b610f4a565b905082815260208101848484011115610fd457610fd3610ed4565b5b610fdf848285610f96565b509392505050565b600082601f830112610ffc57610ffb610ecf565b5b813561100c848260208601610fa5565b91505092915050565b6000806040838503121561102c5761102b610e67565b5b600061103a85828601610eba565b925050602083013567ffffffffffffffff81111561105b5761105a610e6c565b5b61106785828601610fe7565b9150509250929050565b60006020828403121561108757611086610e67565b5b600061109584828501610eba565b91505092915050565b600081519050919050565b600082825260208201905092915050565b60005b838110156110d85780820151818401526020810190506110bd565b838111156110e7576000848401525b50505050565b60006110f88261109e565b61110281856110a9565b93506111128185602086016110ba565b61111b81610ed9565b840191505092915050565b6000602082019050818103600083015261114081846110ed565b905092915050565b600081519050919050565b600082825260208201905092915050565b6000819050602082019050919050565b61117d81610e91565b82525050565b60008115159050919050565b61119881611183565b82525050565b6040820160008201516111b46000850182611174565b5060208201516111c7602085018261118f565b50505050565b60006111d9838361119e565b60408301905092915050565b6000602082019050919050565b60006111fd82611148565b6112078185611153565b935061121283611164565b8060005b8381101561124357815161122a88826111cd565b9750611235836111e5565b925050600181019050611216565b5085935050505092915050565b6000602082019050818103600083015261126a81846111f2565b905092915050565b600081519050919050565b600082825260208201905092915050565b6000819050602082019050919050565b600082825260208201905092915050565b60006112ba8261109e565b6112c4818561129e565b93506112d48185602086016110ba565b6112dd81610ed9565b840191505092915050565b60006112f483836112af565b905092915050565b6000602082019050919050565b600061131482611272565b61131e818561127d565b9350836020820285016113308561128e565b8060005b8581101561136c578484038952815161134d85826112e8565b9450611358836112fc565b925060208a01995050600181019050611334565b50829750879550505050505092915050565b600060208201905081810360008301526113988184611309565b905092915050565b7f4e487b7100000000000000000000000000000000000000000000000000000000600052602260045260246000fd5b600060028204905060018216806113e757607f821691505b602082108114156113fb576113fa6113a0565b5b50919050565b7f4e487b7100000000000000000000000000000000000000000000000000000000600052603260045260246000fd5b7f4e487b7100000000000000000000000000000000000000000000000000000000600052601160045260246000fd5b6000819050919050565b60006114748261145f565b91507fffffffffffffffffffffffffffffffffffffffffffffffffffffffffffffffff8214156114a7576114a6611430565b5b600182019050919050565b7f596f7520646f6e27742068617665206163636573730000000000000000000000600082015250565b60006114e86015836110a9565b91506114f3826114b2565b602082019050919050565b60006020820190508181036000830152611517816114db565b905091905056fea26469706673582212203b543c7f83ffec819f8519968c74d56bd4f50c645543fcbf200cb927fa7c39a064736f6c63430008090033",
  "linkReferences": {},
  "deployedLinkReferences": {}
}