{
  "_format": "hh-sol-artifact-1",
  "contractName": "Upload",
  "sourceName": "contracts/Upload.sol",
  "abi": [
    {
      "inputs": [
        {
          "internalType": "address",
          "name": "_user",
          "type": "address"
        },
        {
          "internalType": "string",
          "name": "url",
          "type": "string"
        }
      ],
      "name": "add",
      "outputs": [],
      "stateMutability": "payable",
      "type": "function"
    },
    {
      "inputs": [
        {
          "internalType": "address",
          "name": "user",
          "type": "address"
        }
      ],
      "name": "allow",
      "outputs": [],
      "stateMutability": "nonpayable",
      "type": "function"
    },
    {
      "inputs": [
        {
          "internalType": "address",
          "name": "user",
          "type": "address"
        }
      ],
      "name": "disallow",
      "outputs": [],
      "stateMutability": "nonpayable",
      "type": "function"
    },
    {
      "inputs": [
        {
          "internalType": "address",
          "name": "_user",
          "type": "address"
        }
      ],
      "name": "display",
      "outputs": [
        {
          "internalType": "string[]",
          "name": "",
          "type": "string[]"
        }
      ],
      "stateMutability": "view",
      "type": "function"
    },
    {
      "inputs": [
        {
          "internalType": "address",
          "name": "sender",
          "type": "address"
        }
      ],
      "name": "getMessage",
      "outputs": [
        {
          "internalType": "string",
          "name": "",
          "type": "string"
        }
      ],
      "stateMutability": "view",
      "type": "function"
    },
    {
      "inputs": [
        {
          "internalType": "address",
          "name": "",
          "type": "address"
        }
      ],
      "name": "messages",
      "outputs": [
        {
          "internalType": "string",
          "name": "",
          "type": "string"
        }
      ],
      "stateMutability": "view",
      "type": "function"
    },
    {
      "inputs": [
        {
          "internalType": "address",
          "name": "_receiver",
          "type": "address"
        },
        {
          "internalType": "string",
          "name": "message",
          "type": "string"
        }
      ],
      "name": "sendMessage",
      "outputs": [],
      "stateMutability": "payable",
      "type": "function"
    },
    {
      "inputs": [],
      "name": "shareAccess",
      "outputs": [
        {
          "components": [
            {
              "internalType": "address",
              "name": "user",
              "type": "address"
            },
            {
              "internalType": "bool",
              "name": "access",
              "type": "bool"
            }
          ],
          "internalType": "struct Upload.Access[]",
          "name": "",
          "type": "tuple[]"
        }
      ],
      "stateMutability": "view",
      "type": "function"
    }
  ],
  "bytecode": "0x608060405234801561001057600080fd5b50610b1d806100206000396000f3fe60806040526004361061007b5760003560e01c8063bc8bef811161004e578063bc8bef811461010b578063de6f24bb1461012d578063eb39113f14610140578063ff9913e81461016d57600080fd5b806336d6da551461008057806355448fe1146100955780635fdd59f8146100cb578063a9ed9cb8146100eb575b600080fd5b61009361008e36600461086d565b61018d565b005b3480156100a157600080fd5b506100b56100b036600461092f565b6101cc565b6040516100c2919061099e565b60405180910390f35b3480156100d757600080fd5b506100b56100e636600461092f565b610278565b3480156100f757600080fd5b5061009361010636600461092f565b610312565b34801561011757600080fd5b506101206103fa565b6040516100c291906109b1565b61009361013b36600461086d565b61047d565b34801561014c57600080fd5b5061016061015b36600461092f565b6104a6565b6040516100c29190610a0b565b34801561017957600080fd5b5061009361018836600461092f565b610612565b6001600160a01b038216600090815260208181526040822080546001810182559083529181902083516101c79391909101918401906107a2565b505050565b6001600160a01b03811660009081526004602052604090208054606091906101f390610a6d565b80601f016020809104026020016040519081016040528092919081815260200182805461021f90610a6d565b801561026c5780601f106102415761010080835404028352916020019161026c565b820191906000526020600020905b81548152906001019060200180831161024f57829003601f168201915b50505050509050919050565b6004602052600090815260409020805461029190610a6d565b80601f01602080910402602001604051908101604052809291908181526020018280546102bd90610a6d565b801561030a5780601f106102df5761010080835404028352916020019161030a565b820191906000526020600020905b8154815290600101906020018083116102ed57829003601f168201915b505050505081565b3360009081526001602090815260408083206001600160a01b03851684529091528120805460ff191690555b336000908152600260205260409020548110156103f65733600090815260026020526040902080546001600160a01b03841691908390811061038257610382610aa8565b6000918252602090912001546001600160a01b031614156103e4573360009081526002602052604081208054839081106103be576103be610aa8565b60009182526020909120018054911515600160a01b0260ff60a01b199092169190911790555b806103ee81610abe565b91505061033e565b5050565b336000908152600260209081526040808320805482518185028101850190935280835260609492939192909184015b8282101561047457600084815260209081902060408051808201909152908401546001600160a01b0381168252600160a01b900460ff16151581830152825260019092019101610429565b50505050905090565b6001600160a01b038216600090815260046020908152604090912082516101c7928401906107a2565b60606001600160a01b0382163314806104e257506001600160a01b038216600090815260016020908152604080832033845290915290205460ff165b61052a5760405162461bcd60e51b8152602060048201526015602482015274596f7520646f6e277420686176652061636365737360581b604482015260640160405180910390fd5b6001600160a01b03821660009081526020818152604080832080548251818502810185019093528083529193909284015b8282101561060757838290600052602060002001805461057a90610a6d565b80601f01602080910402602001604051908101604052809291908181526020018280546105a690610a6d565b80156105f35780601f106105c8576101008083540402835291602001916105f3565b820191906000526020600020905b8154815290600101906020018083116105d657829003601f168201915b50505050508152602001906001019061055b565b505050509050919050565b3360008181526001602081815260408084206001600160a01b038716808652908352818520805460ff19169094179093559383526003815283832091835252205460ff161561071a5760005b336000908152600260205260409020548110156103f65733600090815260026020526040902080546001600160a01b0384169190839081106106a2576106a2610aa8565b6000918252602090912001546001600160a01b0316141561070857336000908152600260205260409020805460019190839081106106e2576106e2610aa8565b60009182526020909120018054911515600160a01b0260ff60a01b199092169190911790555b8061071281610abe565b91505061065e565b336000818152600260209081526040808320815180830183526001600160a01b03878116808352600183870181815285548083018755958952878920945194909501805495511515600160a01b026001600160a81b03199096169490931693909317939093179055948452600383528184209084529091529020805460ff1916909117905550565b8280546107ae90610a6d565b90600052602060002090601f0160209004810192826107d05760008555610816565b82601f106107e957805160ff1916838001178555610816565b82800160010185558215610816579182015b828111156108165782518255916020019190600101906107fb565b50610822929150610826565b5090565b5b808211156108225760008155600101610827565b80356001600160a01b038116811461085257600080fd5b919050565b634e487b7160e01b600052604160045260246000fd5b6000806040838503121561088057600080fd5b6108898361083b565b9150602083013567ffffffffffffffff808211156108a657600080fd5b818501915085601f8301126108ba57600080fd5b8135818111156108cc576108cc610857565b604051601f8201601f19908116603f011681019083821181831017156108f4576108f4610857565b8160405282815288602084870101111561090d57600080fd5b8260208601602083013760006020848301015280955050505050509250929050565b60006020828403121561094157600080fd5b61094a8261083b565b9392505050565b6000815180845260005b818110156109775760208185018101518683018201520161095b565b81811115610989576000602083870101525b50601f01601f19169290920160200192915050565b60208152600061094a6020830184610951565b602080825282518282018190526000919060409081850190868401855b828110156109fe57815180516001600160a01b0316855286015115158685015292840192908501906001016109ce565b5091979650505050505050565b6000602080830181845280855180835260408601915060408160051b870101925083870160005b82811015610a6057603f19888603018452610a4e858351610951565b94509285019290850190600101610a32565b5092979650505050505050565b600181811c90821680610a8157607f821691505b60208210811415610aa257634e487b7160e01b600052602260045260246000fd5b50919050565b634e487b7160e01b600052603260045260246000fd5b6000600019821415610ae057634e487b7160e01b600052601160045260246000fd5b506001019056fea2646970667358221220cc7d24d4d1cf0392f8bdc145681269ee83b2927893458928c6c2bd2df7a7458c64736f6c63430008090033",
  "linkReferences": {},
  "deployedLinkReferences": {}
}